:100000000C9452000C945C000C945C000C945C000A
:100010000C945C000C945C000C945C000C945C00F0
:100020000C945C000C945C000C945C000C945C00E0
:100030000C945C000C945C000C945C000C945C00D0
:100040000C945C000C945C000C945C000C945C00C0
:100050000C945C000C945C000C945C000C945C00B0
:100060000C945C000C945C000C945C000C945C00A0
:100070000C945C000C945C000C945C000C945C0090
:100080000C945C000C945C000C945C000C945C0080
:100090000C945C000C945C000C945C000C945C0070
:1000A0000C945C0011241FBECFEFCDBFDFE7DEBF95
:1000B0000E945E000C94AA000C940000CF93DF9382
:1000C000CDB7DEB72E97CDBFDEBF8FEF8093600434
:1000D000809340048AE0E8E5F1E8DE0111960190A2
:1000E0000D928A95E1F78091628190916381A09150
:1000F0006481B09165818B879C87AD87BE875FEFF8
:1001000061E070E02AE030E0DE011B9690E080E0E4
:1001100050936404FB01082E01C0EE0F0A94EAF725
:10012000E0934404ED9101E010E00C0F1D1F0E0F51
:10013000111DF80140814095409364041DE01A951B
:10014000F1F7000001968430910511F72150310933
:08015000D9F6D8CFF894FFCFD7
:0E0158003F065B4F666D7D077F6F060706074B
:00000001FF
